:1000000010C01FC01EC01DC01CC01BC01AC019C01C
:1000100018C017C016C015C014C013C012C011C03C
:1000200010C011241FBECFE5D1E0DEBFCDBF20E060
:10003000A0E6B0E001C01D92A536B207E1F724D1D9
:1000400041C1DECFFC019081862F8095982390835B
:1000500098E39A95F1F700C0908140FF02C0962B7B
:1000600001C09823908398E39A95F1F700C090819E
:1000700041FF02C0962B01C09823908398E39A9584
:10008000F1F700C0908142FF02C0962B01C0982377
:10009000908398E39A95F1F700C0908143FF02C0E6
:1000A000962B01C09823908398E39A95F1F700C0AE
:1000B000908144FF02C0962B01C09823908398E35F
:1000C0009A95F1F700C0908145FF02C0962B01C0C0
:1000D0009823908398E39A95F1F700C0908146FFAA
:1000E00002C0962B01C09823908398E39A95F1F76C
:1000F00000C047FF04C08081862B808303C09081AD
:100100009823908388E38A95F1F700C08081862B3D
:10011000808398E39A95F1F700C088E38A95F1F718
:1001200000C00895CF93FC01C42F10926400109278
:10013000630010926200109261008081562F5095EA
:10014000852380838AB3862B8ABB109260008091BE
:1001500060008436B0F583EF91E00197F1F700C0BD
:1001600000008081862B8083369A3699FECF24B199
:1001700035B18091630090916400820F931F90933A
:1001800064008093630083EF91E00197F1F700C072
:100190000000808185238083369A3699FECF24B172
:1001A00035B18091610090916200820F931F90930E
:1001B000620080936100809160008F5F8093600097
:1001C000C6CF41E060E18BE390E03CDF8FE493EC4D
:1001D0000197F1F700C0000042E060E18BE390E09E
:1001E00031DF8FE493EC0197F1F700C0000043E0AA
:1001F00060E18BE390E026DF8FE493EC0197F1F769
:1002000000C0000044E060E18BE390E01BDF4C2F76
:1002100060E18BE390E016DF8FE493EC0197F1F758
:1002200000C000004091630060E18BE390E00ADFD2
:100230008FE493EC0197F1F700C000004091640057
:1002400060E18BE390E0FEDE8FE493EC0197F1F741
:1002500000C000004091610060E18BE390E0F2DEBD
:100260008FE493EC0197F1F700C000004091620029
:1002700060E18BE390E0E6DE8FE493EC0197F1F729
:1002800000C00000CF91089580E886BD16BCDC9ABE
:10029000D49A87E087B987E886B941E068E08BE3C4
:1002A00090E040DF42E064E08BE390E03BDF43E03E
:1002B00062E08BE390E036DF44E061E08BE390E0C6
:0802C00031DFEBCFF894FFCF12
:00000001FF
