:1000000010C02AC029C028C027C026C025C024C0CF
:1000100023C022C021C020C01FC01EC01DC01CC0E4
:100020001BC011241FBECFE5D1E0DEBFCDBF10E065
:10003000A0E6B0E0E0E9FBE002C005900D92A83C2C
:10004000B107D9F710E0A8ECB0E001C01D92AA3DBD
:10005000B107E1F7F6D39AC5D3CFFC019081862F83
:1000600080959823908398E39A95F1F700C090814A
:1000700040FF02C0962B01C09823908398E39A9585
:10008000F1F700C0908141FF02C0962B01C0982378
:10009000908398E39A95F1F700C0908142FF02C0E7
:1000A000962B01C09823908398E39A95F1F700C0AE
:1000B000908143FF02C0962B01C09823908398E360
:1000C0009A95F1F700C0908144FF02C0962B01C0C1
:1000D0009823908398E39A95F1F700C0908145FFAB
:1000E00002C0962B01C09823908398E39A95F1F76C
:1000F00000C0908146FF02C0962B01C098239083D8
:1001000098E39A95F1F700C047FF04C08081862BE1
:10011000808303C090819823908388E38A95F1F7C8
:1001200000C08081862B808398E39A95F1F700C008
:1001300088E38A95F1F700C008950F931F93CF933A
:10014000DF938C0140E360E18BE390E086DF48E7DA
:1001500060E18BE390E081DFCCE0D0E0C8010C2EC1
:1001600002C0969587950A94E2F78F7040E3480F96
:100170004A3314F047E3480F60E18BE390E06DDF12
:100180002497CC3F8FEFD80749F7DF91CF911F918C
:100190000F910895EF92FF920F931F93CF93DF93E8
:1001A00000D000D01F92CDB7DEB745E0E9EBF0E01C
:1001B0009E012F5F3F4FD90101900D924A95E1F7C3
:1001C000FE0136960AE010E0B8010CD4805D8293FF
:1001D000CB01E217F307C1F78F017E0186E0E80E3D
:1001E000F11CF80141918F0160E18BE390E035DF74
:1001F0000E151F05B1F70F900F900F900F900F90F5
:10020000DF91CF911F910F91FF90EF900895AF92E2
:10021000BF92CF92DF92EF92FF920F931F93CF93F3
:10022000DF93CDB7DEB72A970FB6F894DEBF0FBEC7
:10023000CDBF2AE0EEEBF0E0AE014F5F5F4F5A0119
:10024000DA0101900D922A95E1F78E01055F1F4FAB
:100250002AE0C22ED12CE12CF12CA7019601D6D395
:10026000605DF80162938F01B901CA01EA15FB05CF
:10027000A1F77E01FBE0EF0EF11CF80141918F0127
:1002800060E18BE390E0E9DE0E151F05B1F72A96D9
:100290000FB6F894DEBF0FBECDBFDF91CF911F9197
:1002A0000F91FF90EF90DF90CF90BF90AF900895A7
:1002B00097FF03C091958195910908951F93CF935E
:1002C000DF93182FC0E6D0E08881882309F43FC06F
:1002D00081133BC02091D2003091D30025303105ED
:1002E000A8F443E560E18BE390E0B7DE812F90E076
:1002F00024DF4CE260E18BE390E0AFDE898190E0A7
:1003000049DF4AE060E18BE390E0A7DE898190E07D
:1003100068E572E056D3AA2797FDA095BA2F4091C1
:10032000D6005091D7006091D8007091D900480F45
:10033000591F6A1F7B1F4093D6005093D7006093CC
:10034000D8007093D90081E002C02796BDCFDF911D
:10035000CF911F9108958F929F92AF92BF92CF92AB
:10036000DF92EF92FF920F931F93CF93DF93F82EBC
:100370008B01C0E6D0E08881882309F4D9C08A8146
:100380008F11D4C02091D2003091D3002530310597
:10039000C0F543E460E18BE390E05FDE8F2D90E0F9
:1003A000CCDE4CE260E18BE390E057DEC801F2DE88
:1003B0004CE260E18BE390E050DE8B8190E0EADE7E
:1003C0004CE260E18BE390E048DE8C81992787FD69
:1003D0009095E0DE4CE260E18BE390E03EDE8D81C3
:1003E00090E0D8DE4CE260E18BE390E036DE8E8177
:1003F000992787FD9095CEDE4AE060E18BE390E09F
:100400002CDE4801A12CB12C6C81772767FD7095FB
:10041000C801D7D2EB81F0E0EE0FFF1FE853FF4F8A
:1004200060817181660F771F660F771F680F791FD4
:1004300080E090E02CE231E040E050E01DD3A32FBB
:10044000F42FE52F622F7A2F8F2F9E2FA501940175
:10045000FFD269017A016E81772767FD7095C80127
:10046000B0D2ED81F0E0EE0FFF1FE853FF4F208187
:100470003181220F331F220F331F821B930BBC01CC
:1004800080E090E02CE231E040E050E0F5D2A32F94
:10049000F42FE52F622F7A2F8F2F9E2FA501940125
:1004A000D7D249015A018091D2009091D30005978B
:1004B000A8F443E660E18BE390E0CFDDC701B6012D
:1004C000A6DE4CE260E18BE390E0C7DDC501B4013C
:1004D0009EDE4AE060E18BE390E0BFDDB701A6015C
:1004E000480D591D6A1D7B1D8091D6009091D70043
:1004F000A091D800B091D900840F951FA61FB71FF7
:100500008093D6009093D700A093D800B093D900E1
:100510008091D4009091D5008C0D9D1D881999096A
:100520009093D5008093D40081E002C0279623CF1A
:10053000DF91CF911F910F91FF90EF90DF90CF90BF
:10054000BF90AF909F908F9008954F925F926F925F
:100550007F928F929F92AF92BF92CF92DF92EF9253
:10056000FF920F931F93CF93DF938091CA009091D6
:10057000CB00E090C800F090C9008E159F0508F4EC
:100580007C018091CC009091CD008E159F0508F4E0
:100590007C018091CE009091CF008E159F0508F4CC
:1005A0007C018091D2009091D300059760F442E5E0
:1005B00060E18BE390E051DD4CE260E18BE390E0A1
:1005C0004CDDC701E7DD08EC10E0C0E0D0E0F80149
:1005D000808191818E199F0991838083C80FD91FD3
:1005E0008091D2009091D300059748F44CE260E1ED
:1005F0008BE390E032DDF80180819181CBDD0E5FED
:100600001F4FF0E0003D1F0711F74AE060E18BE368
:1006100090E023DD7E01F694E7946701D694C794B9
:100620008091D2009091D3000597D0F442E760E129
:100630008BE390E012DDCE01ADDD4CE260E18BE3B7
:1006400090E00BDDC601A6DD4CE260E18BE390E0BB
:1006500004DDC7019FDD4AE060E18BE390E0FDDC53
:100660005E0173E0B694A7947A95E1F700E010E09C
:10067000E3E08E2E912C0A151B0509F4A3C0E8ECCB
:10068000F0E0412C712C440C440C21913191201745
:10069000310718F483E0480E11C0C9018C199D0977
:1006A0008017910710F4439409C02E193F092017B1
:1006B000310718F44394439401C0739480E0E03D03
:1006C000F80709F78091D2009091D3000597E0F4E4
:1006D00044E560E18BE390E0C0DC842D90E02DDD0B
:1006E0004CE260E18BE390E0B8DCC80153DD4CE202
:1006F00060E18BE390E0B1DC872D90E04BDD4AE0D8
:1007000060E18BE390E0A9DCE1E07E1669F07E1603
:1007100038F0F2E07F1250C0BE01842D1CDE1BC0F9
:10072000BE01842DCBDD17C0612C712CC401062CB9
:1007300001C0880F0A94EAF78095BE0184210BDE80
:10074000582E86E06816710439F0E2E06E0E711CD6
:10075000552061F303C0582E552079F18091D200C5
:100760009091D300059798F446E460E18BE390E024
:1007700074DC6091D6007091D7008091D800909180
:10078000D90045DD4AE060E18BE390E066DC8091D2
:10079000D0009091D100800F911F9093D100809351
:1007A000D0002091D2003091D3002F5F3F4F309383
:1007B000D3002093D20001C0512C0F5F1F4F552052
:1007C00009F459CFDF91CF911F910F91FF90EF90D6
:1007D000DF90CF90BF90AF909F908F907F906F9061
:1007E0005F904F9008959BB3E82FF0E0DF01AB548A
:1007F000BF4F8C91809589238BBB8AB39C91892BA9
:100800008ABB369A25E32A95F1F700008BB3EB54A7
:10081000FF4F9081892B8BBB3699FECF84B195B168
:10082000369A25E32A95F1F700003BB32081209505
:1008300023232BBB3699FECF24B135B1821B930BFA
:10084000089580E886BD16BCD49ADC9A8AB38F607E
:100850008ABB8BB3807F8BBB8FE493EC0197F1F75E
:1008600000C000008AB3887F8ABB87E087B987E829
:1008700086B9CAE0D0E01092D1001092D000109258
:10088000D3001092D2001092D5001092D400109292
:10089000D6001092D7001092D8001092D90014E61A
:1008A000E12E8091D2009091D300059750F446E557
:1008B00060E18BE390E0D1DB8091D2009091D30096
:1008C00069DC08EC10E0F12C8F2D8DDFF8019183AD
:1008D00080832091D2003091D3002530310548F437
:1008E0004CE260E18BE390E0B8DBF801808191811C
:1008F00051DCF3940E5F1F4FF4E0FF12E5CF4AE0A6
:1009000060E18BE390E0A9DB20DEEA9451F6809170
:10091000D2009091D300892B09F448C04AE360E1EA
:100920008BE390E09ADB2091D2003091D30040E03D
:1009300050E06091D6007091D7008091D8009091DE
:10094000D90064D05695479537952795C90122DC83
:100950004CE260E18BE390E080DB8091D2009091EB
:10096000D30018DC4CE260E18BE390E076DB809111
:10097000D4009091D5006091D2007091D30032D014
:10098000CB01BE012FD0CB0105DC4CE260E18BE353
:1009900090E063DB8091D0009091D1006091D20013
:1009A0007091D3001FD0CB01F5DB05C04AE260E1B6
:1009B0008BE390E052DB4AE060E18BE390E04DDBBB
:1009C0005ACF0024552704C0080E591F880F991FBD
:1009D000009729F076956795B8F37105B9F7802DE2
:1009E000952F0895AA1BBB1B51E107C0AA1FBB1F6F
:1009F000A617B70710F0A61BB70B881F991F5A95AB
:100A0000A9F780959095BC01CD010895A1E21A2E19
:100A1000AA1BBB1BFD010DC0AA1FBB1FEE1FFF1FA2
:100A2000A217B307E407F50720F0A21BB30BE40BF2
:100A3000F50B661F771F881F991F1A9469F7609539
:100A40007095809590959B01AC01BD01CF010895F3
:100A5000052E97FB16F400942CD057FD05D0D6DF59
:100A600007FC02D046F425C050954095309521955D
:100A70003F4F4F4F5F4F089568940010E894A0E0F7
:100A8000B0E0E4E4F5E025C0EFEFE7F959016A01D1
:100A90005E23550FEE08FE2C87019B01AC019E23BF
:100AA000990F660B762FCB0143D0CDB7DEB7EAE0C6
:100AB0002CC090958095709561957F4F8F4F9F4F7B
:100AC00008952F923F924F925F926F927F928F92F2
:100AD0009F92AF92BF92CF92DF92EF92FF920F93CD
:100AE0001F93CF93DF93CDB7DEB7CA1BDB0B0FB6D7
:100AF000F894DEBF0FBECDBF09942A883988488894
:100B00005F846E847D848C849B84AA84B984C88429
:100B1000DF80EE80FD800C811B81AA81B981CE0F20
:100B2000D11D0FB6F894DEBF0FBECDBFED01089505
:100B3000DF93CF939F92A0E49A2E0024D001E0018E
:100B4000F00116950795F794E794D794C794B79456
:100B5000A79448F41068A20FB31FC41FD51FE61F47
:100B6000F71F081E191E220F331F441F551F661F33
:100B7000771F881F991F9A9421F79D01AE01BF012D
:100B8000C00111249F90CF91DF910895F894FFCF79
:100B900097001302FF00025B010B01000002EB0251
:100BA000E003020204E503C403020105D604C20205
:100BB000030105FA0538000503077906310005022F
:100BC00008B507B003060208BE080E0108000A5E59
:100BD000094C0108030B6D0A2C0009030BAF0B83B2
:100BE000020B010D0008040201303030303030308B
:080BF00030303030303030307D
:00000001FF
